{
  "transactions": [
    {
      "hash": "0x321330a34e937ca2ac0d64bdd14a688c7d1a5ae72184628f48880de34629235e",
      "transactionType": "CREATE",
      "contractName": "PureSuperToken",
      "contractAddress": "0x10fb9c48ca481671f94878825d5851d493a52cb4",
      "function": null,
      "arguments": null,
      "transaction": {
        "from": "0xc3593524e2744e547f013e17e6b0776bc27fc614",
        "gas": "0x6f1a0",
        "value": "0x0",
        "input": "0x608060405234801561001057600080fd5b50610560806100206000396000f3fe60806040526004361061002d5760003560e01c80634a0687ef1461004457806375b30be6146100645761003c565b3661003c5761003a610084565b005b61003a610084565b34801561005057600080fd5b5061003a61005f366004610318565b610096565b34801561007057600080fd5b5061003a61007f3660046103dd565b61019c565b61009461008f6101c8565b6101f7565b565b6001600160a01b0381166100f15760405162461bcd60e51b815260206004820152601760248201527f5555505350726f78793a207a65726f206164647265737300000000000000000060448201526064015b60405180910390fd5b600061011b7f360894a13ba1a3210667c828492db98dca3e2076cc3735a920a3ca505d382bbc5490565b6001600160a01b0316146101715760405162461bcd60e51b815260206004820152601e60248201527f5555505350726f78793a20616c726561647920696e697469616c697a6564000060448201526064016100e8565b610199817f360894a13ba1a3210667c828492db98dca3e2076cc3735a920a3ca505d382bbc55565b50565b6101a785858561021b565b6101c18282604051806020016040528060008152506102d5565b5050505050565b60006101f27f360894a13ba1a3210667c828492db98dca3e2076cc3735a920a3ca505d382bbc5490565b905090565b3660008037600080366000845af43d6000803e808015610216573d6000f35b3d6000fd5b604051633504b4d160e21b81523060048201526001600160a01b0384169063d412d34490602401600060405180830381600087803b15801561025c57600080fd5b505af1158015610270573d6000803e3d6000fd5b50506040516285fc1360e71b81523092506342fe0980915061029e90600090601290879087906004016104b0565b600060405180830381600087803b1580156102b857600080fd5b505af11580156102cc573d6000803e3d6000fd5b50505050505050565b60405163c68d428360e01b8152309063c68d42839061029e908690869086906004016104fa565b80356001600160a01b038116811461031357600080fd5b919050565b60006020828403121561032a57600080fd5b610333826102fc565b9392505050565b634e487b7160e01b600052604160045260246000fd5b600082601f83011261036157600080fd5b813567ffffffffffffffff8082111561037c5761037c61033a565b604051601f8301601f19908116603f011681019082821181831017156103a4576103a461033a565b816040528381528660208588010111156103bd57600080fd5b836020870160208301376000602085830101528094505050505092915050565b600080600080600060a086880312156103f557600080fd5b6103fe866102fc565b9450602086013567ffffffffffffffff8082111561041b57600080fd5b61042789838a01610350565b9550604088013591508082111561043d57600080fd5b5061044a88828901610350565b935050610459606087016102fc565b949793965091946080013592915050565b6000815180845260005b8181101561049057602081850181015186830182015201610474565b506000602082860101526020601f19601f83011685010191505092915050565b6001600160a01b038516815260ff841660208201526080604082018190526000906104dd9083018561046a565b82810360608401526104ef818561046a565b979650505050505050565b60018060a01b0384168152826020820152606060408201526000610521606083018461046a565b9594505050505056fea2646970667358221220a6c4ce28106eec3752b48a5f3d01b66b0b55c5d33a989b4c975c0443b55a38d364736f6c63430008170033",
        "nonce": "0x3a",
        "chainId": "0xaa37dc"
      },
      "additionalContracts": [],
      "isFixedGasLimit": false
    },
    {
      "hash": "0x837a0d9f09972e8776a79648210b161802d36b5bf20c6574b24acf2984c2726c",
      "transactionType": "CALL",
      "contractName": "PureSuperToken",
      "contractAddress": "0x10fb9c48ca481671f94878825d5851d493a52cb4",
      "function": "initialize(address,string,string,address,uint256)",
      "arguments": [
        "0xfcF0489488397332579f35b0F711BE570Da0E8f5",
        "\"Super Pure Token\"",
        "\"SPT\"",
        "0xc3593524E2744E547f013E17E6b0776Bc27Fc614",
        "1000000000000000000000"
      ],
      "transaction": {
        "from": "0xc3593524e2744e547f013e17e6b0776bc27fc614",
        "to": "0x10fb9c48ca481671f94878825d5851d493a52cb4",
        "gas": "0x59e29",
        "value": "0x0",
        "input": "0x75b30be6000000000000000000000000fcf0489488397332579f35b0f711be570da0e8f500000000000000000000000000000000000000000000000000000000000000a000000000000000000000000000000000000000000000000000000000000000e0000000000000000000000000c3593524e2744e547f013e17e6b0776bc27fc61400000000000000000000000000000000000000000000003635c9adc5dea0000000000000000000000000000000000000000000000000000000000000000000105375706572205075726520546f6b656e0000000000000000000000000000000000000000000000000000000000000000000000000000000000000000000000035350540000000000000000000000000000000000000000000000000000000000",
        "nonce": "0x3b",
        "chainId": "0xaa37dc"
      },
      "additionalContracts": [],
      "isFixedGasLimit": false
    }
  ],
  "receipts": [
    {
      "status": "0x1",
      "cumulativeGasUsed": "0x1da9f7",
      "logs": [],
      "logsBloom": "0x00000000000000000000000000000000000000000000000000000000000000000000000000000000000000000000000000000000000000000000000000000000000000000000000000000000000000000000000000000000000000000000000000000000000000000000000000000000000000000000000000000000000000000000000000000000000000000000000000000000000000000000000000000000000000000000000000000000000000000000000000000000000000000000000000000000000000000000000000000000000000000000000000000000000000000000000000000000000000000000000000000000000000000000000000000000",
      "type": "0x2",
      "transactionHash": "0x321330a34e937ca2ac0d64bdd14a688c7d1a5ae72184628f48880de34629235e",
      "transactionIndex": "0x2",
      "blockHash": "0x5209ac522f21e7ba3611e287ce6c4c39564e499064c1cf22b9ae1048ebd5e282",
      "blockNumber": "0xd17767",
      "gasUsed": "0x557c0",
      "effectiveGasPrice": "0x78d06f2",
      "from": "0xc3593524e2744e547f013e17e6b0776bc27fc614",
      "to": null,
      "contractAddress": "0x10fb9c48ca481671f94878825d5851d493a52cb4",
      "l1BaseFeeScalar": "0x1db0",
      "l1BlobBaseFee": "0x1",
      "l1BlobBaseFeeScalar": "0xd2730",
      "l1Fee": "0x961dac2e67",
      "l1GasPrice": "0x14bac09ea",
      "l1GasUsed": "0x3b8d"
    },
    {
      "status": "0x1",
      "cumulativeGasUsed": "0x32adea",
      "logs": [
        {
          "address": "0xfcf0489488397332579f35b0f711be570da0e8f5",
          "topics": [
            "0x437790724a6e97b75d23117f28cdd4b1beeafc34f7a0911ef256e9334f4369a5",
            "0x00000000000000000000000010fb9c48ca481671f94878825d5851d493a52cb4"
          ],
          "data": "0x",
          "blockHash": "0x5209ac522f21e7ba3611e287ce6c4c39564e499064c1cf22b9ae1048ebd5e282",
          "blockNumber": "0xd17767",
          "transactionHash": "0x837a0d9f09972e8776a79648210b161802d36b5bf20c6574b24acf2984c2726c",
          "transactionIndex": "0x4",
          "logIndex": "0x48",
          "removed": false
        },
        {
          "address": "0x1820a4b7618bde71dce8cdc73aab6c95905fad24",
          "topics": [
            "0x93baa6efbd2244243bfee6ce4cfdd1d04fc4c0e9a786abd3a41313bd352db153",
            "0x00000000000000000000000010fb9c48ca481671f94878825d5851d493a52cb4",
            "0xac7fbab5f54a3ca8194167523c6753bfeb96a445279294b6125b68cce2177054",
            "0x00000000000000000000000010fb9c48ca481671f94878825d5851d493a52cb4"
          ],
          "data": "0x",
          "blockHash": "0x5209ac522f21e7ba3611e287ce6c4c39564e499064c1cf22b9ae1048ebd5e282",
          "blockNumber": "0xd17767",
          "transactionHash": "0x837a0d9f09972e8776a79648210b161802d36b5bf20c6574b24acf2984c2726c",
          "transactionIndex": "0x4",
          "logIndex": "0x49",
          "removed": false
        },
        {
          "address": "0x1820a4b7618bde71dce8cdc73aab6c95905fad24",
          "topics": [
            "0x93baa6efbd2244243bfee6ce4cfdd1d04fc4c0e9a786abd3a41313bd352db153",
            "0x00000000000000000000000010fb9c48ca481671f94878825d5851d493a52cb4",
            "0xaea199e31a596269b42cdafd93407f14436db6e4cad65417994c2eb37381e05a",
            "0x00000000000000000000000010fb9c48ca481671f94878825d5851d493a52cb4"
          ],
          "data": "0x",
          "blockHash": "0x5209ac522f21e7ba3611e287ce6c4c39564e499064c1cf22b9ae1048ebd5e282",
          "blockNumber": "0xd17767",
          "transactionHash": "0x837a0d9f09972e8776a79648210b161802d36b5bf20c6574b24acf2984c2726c",
          "transactionIndex": "0x4",
          "logIndex": "0x4a",
          "removed": false
        },
        {
          "address": "0x10fb9c48ca481671f94878825d5851d493a52cb4",
          "topics": [
            "0xddf252ad1be2c89b69c2b068fc378daa952ba7f163c4a11628f55a4df523b3ef",
            "0x0000000000000000000000000000000000000000000000000000000000000000",
            "0x0000000000000000000000000000000000000000000000000000000000000000"
          ],
          "data": "0x0000000000000000000000000000000000000000000000000000000000000000",
          "blockHash": "0x5209ac522f21e7ba3611e287ce6c4c39564e499064c1cf22b9ae1048ebd5e282",
          "blockNumber": "0xd17767",
          "transactionHash": "0x837a0d9f09972e8776a79648210b161802d36b5bf20c6574b24acf2984c2726c",
          "transactionIndex": "0x4",
          "logIndex": "0x4b",
          "removed": false
        },
        {
          "address": "0x10fb9c48ca481671f94878825d5851d493a52cb4",
          "topics": [
            "0x7e644d79422f17c01e4894b5f4f588d331ebfa28653d42ae832dc59e38c9798f",
            "0x0000000000000000000000000000000000000000000000000000000000000000",
            "0x0000000000000000000000000000000000000000000000000000000000000000"
          ],
          "data": "0x",
          "blockHash": "0x5209ac522f21e7ba3611e287ce6c4c39564e499064c1cf22b9ae1048ebd5e282",
          "blockNumber": "0xd17767",
          "transactionHash": "0x837a0d9f09972e8776a79648210b161802d36b5bf20c6574b24acf2984c2726c",
          "transactionIndex": "0x4",
          "logIndex": "0x4c",
          "removed": false
        },
        {
          "address": "0x10fb9c48ca481671f94878825d5851d493a52cb4",
          "topics": [
            "0x7f26b83ff96e1f2b6a682f133852f6798a09c465da95921460cefb3847402498"
          ],
          "data": "0x0000000000000000000000000000000000000000000000000000000000000001",
          "blockHash": "0x5209ac522f21e7ba3611e287ce6c4c39564e499064c1cf22b9ae1048ebd5e282",
          "blockNumber": "0xd17767",
          "transactionHash": "0x837a0d9f09972e8776a79648210b161802d36b5bf20c6574b24acf2984c2726c",
          "transactionIndex": "0x4",
          "logIndex": "0x4d",
          "removed": false
        },
        {
          "address": "0x10fb9c48ca481671f94878825d5851d493a52cb4",
          "topics": [
            "0x2fe5be0146f74c5bce36c0b80911af6c7d86ff27e89d5cfa61fc681327954e5d",
            "0x00000000000000000000000010fb9c48ca481671f94878825d5851d493a52cb4",
            "0x000000000000000000000000c3593524e2744e547f013e17e6b0776bc27fc614"
          ],
          "data": "0x00000000000000000000000000000000000000000000003635c9adc5dea000000000000000000000000000000000000000000000000000000000000000000060000000000000000000000000000000000000000000000000000000000000008000000000000000000000000000000000000000000000000000000000000000000000000000000000000000000000000000000000000000000000000000000000",
          "blockHash": "0x5209ac522f21e7ba3611e287ce6c4c39564e499064c1cf22b9ae1048ebd5e282",
          "blockNumber": "0xd17767",
          "transactionHash": "0x837a0d9f09972e8776a79648210b161802d36b5bf20c6574b24acf2984c2726c",
          "transactionIndex": "0x4",
          "logIndex": "0x4e",
          "removed": false
        },
        {
          "address": "0x10fb9c48ca481671f94878825d5851d493a52cb4",
          "topics": [
            "0xddf252ad1be2c89b69c2b068fc378daa952ba7f163c4a11628f55a4df523b3ef",
            "0x0000000000000000000000000000000000000000000000000000000000000000",
            "0x000000000000000000000000c3593524e2744e547f013e17e6b0776bc27fc614"
          ],
          "data": "0x00000000000000000000000000000000000000000000003635c9adc5dea00000",
          "blockHash": "0x5209ac522f21e7ba3611e287ce6c4c39564e499064c1cf22b9ae1048ebd5e282",
          "blockNumber": "0xd17767",
          "transactionHash": "0x837a0d9f09972e8776a79648210b161802d36b5bf20c6574b24acf2984c2726c",
          "transactionIndex": "0x4",
          "logIndex": "0x4f",
          "removed": false
        }
      ],
      "logsBloom": "0x00000800020000200000800000200000000000000000000000000000000000001040000002000000400000000080000000000000000000000000000000000000000000000000000000000008000200000000000000000000002000000000000000040000020400000000000000000800000010800020000000000010000000000000040040000040010000000000080000000000000080000800000000800000000000000020000000000000000400000000000000000000200800000000000000000002000000000000000000040002000000000410000000000008000020000000010000000000000000000000000002000000000000000000000000000000",
      "type": "0x2",
      "transactionHash": "0x837a0d9f09972e8776a79648210b161802d36b5bf20c6574b24acf2984c2726c",
      "transactionIndex": "0x4",
      "blockHash": "0x5209ac522f21e7ba3611e287ce6c4c39564e499064c1cf22b9ae1048ebd5e282",
      "blockNumber": "0xd17767",
      "gasUsed": "0x41134",
      "effectiveGasPrice": "0x78d06f2",
      "from": "0xc3593524e2744e547f013e17e6b0776bc27fc614",
      "to": "0x10fb9c48ca481671f94878825d5851d493a52cb4",
      "contractAddress": null,
      "l1BaseFeeScalar": "0x1db0",
      "l1BlobBaseFee": "0x1",
      "l1BlobBaseFeeScalar": "0xd2730",
      "l1Fee": "0x18c9a51b5a",
      "l1GasPrice": "0x14bac09ea",
      "l1GasUsed": "0x9d5"
    }
  ],
  "libraries": [],
  "pending": [],
  "returns": {},
  "timestamp": 1719257728,
  "chain": 11155420,
  "commit": "884f55e"
}